{
  "contractName": "FileManager",
  "abi": [
    {
      "constant": false,
      "inputs": [
        {
          "internalType": "string[]",
          "name": "_fileInfo",
          "type": "string[]"
        },
        {
          "internalType": "string",
          "name": "_cid",
          "type": "string"
        }
      ],
      "name": "addFile",
      "outputs": [],
      "payable": false,
      "stateMutability": "nonpayable",
      "type": "function"
    },
    {
      "constant": true,
      "inputs": [
        {
          "internalType": "address",
          "name": "_account",
          "type": "address"
        }
      ],
      "name": "getFiles",
      "outputs": [
        {
          "components": [
            {
              "internalType": "string",
              "name": "fileName",
              "type": "string"
            },
            {
              "internalType": "string",
              "name": "fileType",
              "type": "string"
            },
            {
              "internalType": "string",
              "name": "cid",
              "type": "string"
            }
          ],
          "internalType": "struct FileManager.File[]",
          "name": "",
          "type": "tuple[]"
        }
      ],
      "payable": false,
      "stateMutability": "view",
      "type": "function"
    }
  ],
  "bytecode": "0x608060405234801561001057600080fd5b506107cd806100206000396000f3fe608060405234801561001057600080fd5b50600436106100365760003560e01c8063433bf37b1461003b578063f51592dd14610064575b600080fd5b61004e6100493660046104eb565b610079565b60405161005b9190610688565b60405180910390f35b610077610072366004610511565b6102af565b005b6001600160a01b038116600090815260208181526040808320805482518185028101850190935280835260609492939192909184015b828210156102a45760008481526020908190206040805160038602909201805460026001821615610100026000190190911604601f81018590049094028301608090810190925260608301848152929390928492909184918401828280156101585780601f1061012d57610100808354040283529160200191610158565b820191906000526020600020905b81548152906001019060200180831161013b57829003601f168201915b50505050508152602001600182018054600181600116156101000203166002900480601f0160208091040260200160405190810160405280929190818152602001828054600181600116156101000203166002900480156101fa5780601f106101cf576101008083540402835291602001916101fa565b820191906000526020600020905b8154815290600101906020018083116101dd57829003601f168201915b5050509183525050600282810180546040805160206001841615610100026000190190931694909404601f8101839004830285018301909152808452938101939083018282801561028c5780601f106102615761010080835404028352916020019161028c565b820191906000526020600020905b81548152906001019060200180831161026f57829003601f168201915b505050505081525050815260200190600101906100af565b505050509050919050565b600080336001600160a01b03166001600160a01b031681526020019081526020016000206040518060600160405280846000815181106102eb57fe5b602002602001015181526020018460018151811061030557fe5b60209081029190910181015182529081018490528254600181018085556000948552938290208351805160039093029091019261034792849290910190610384565b5060208281015180516103609260018501920190610384565b506040820151805161037c916002840191602090910190610384565b505050505050565b828054600181600116156101000203166002900490600052602060002090601f016020900481019282601f106103c557805160ff19168380011785556103f2565b828001600101855582156103f2579182015b828111156103f25782518255916020019190600101906103d7565b506103fe929150610402565b5090565b61041c91905b808211156103fe5760008155600101610408565b90565b803561042a81610773565b92915050565b600082601f83011261044157600080fd5b813561045461044f826106c0565b610699565b81815260209384019390925082018360005b83811015610492578135860161047c888261049c565b8452506020928301929190910190600101610466565b5050505092915050565b600082601f8301126104ad57600080fd5b81356104bb61044f826106e1565b915080825260208301602083018583830111156104d757600080fd5b6104e283828461072d565b50505092915050565b6000602082840312156104fd57600080fd5b6000610509848461041f565b949350505050565b6000806040838503121561052457600080fd5b823567ffffffffffffffff81111561053b57600080fd5b61054785828601610430565b925050602083013567ffffffffffffffff81111561056457600080fd5b6105708582860161049c565b9150509250929050565b60006105868383610633565b9392505050565b60006105988261070f565b6105a28185610713565b9350836020820285016105b485610709565b8060005b858110156105ee57848403895281516105d1858261057a565b94506105dc83610709565b60209a909a01999250506001016105b8565b5091979650505050505050565b60006106068261070f565b6106108185610713565b9350610620818560208601610739565b61062981610769565b9093019392505050565b805160608084526000919084019061064b82826105fb565b9150506020830151848203602086015261066582826105fb565b9150506040830151848203604086015261067f82826105fb565b95945050505050565b60208082528101610586818461058d565b60405181810167ffffffffffffffff811182821017156106b857600080fd5b604052919050565b600067ffffffffffffffff8211156106d757600080fd5b5060209081020190565b600067ffffffffffffffff8211156106f857600080fd5b506020601f91909101601f19160190565b60200190565b5190565b90815260200190565b60006001600160a01b03821661042a565b82818337506000910152565b60005b8381101561075457818101518382015260200161073c565b83811115610763576000848401525b50505050565b601f01601f191690565b61077c8161071c565b811461078757600080fd5b5056fea365627a7a72315820fdde6502a1a3432d8b52b458b7b4de567b4317d1c9e61bf0f2c7e4027f4d79576c6578706572696d656e74616cf564736f6c63430005100040",
  "source": "// SPDX-License-Identifier: UNLICENSED\r\npragma solidity >=0.5.0 <0.6.0;\r\npragma experimental ABIEncoderV2;\r\n\r\ncontract FileManager {\r\n  struct File {\r\n    string fileName;\r\n    string fileType;\r\n    string cid;\r\n  }\r\n  mapping(address => File[]) files;\r\n\r\n  function addFile(string[] memory _fileInfo, string  memory _cid) public {\r\n    files[msg.sender].push(File(_fileInfo[0], _fileInfo[1], _cid));\r\n  }\r\n\r\n  function getFiles(address _account) public  view  returns (File[] memory) {\r\n    return files[_account];\r\n  }\r\n}",
  "sourcePath": "C:\\Users\\divij\\teacher-dashboard\\contracts\\FileManager.sol",
  "compiler": {
    "name": "solc",
    "version": "0.5.16+commit.9c3226ce.Emscripten.clang"
  },
  "schemaVersion": "3.0.23",
  "updatedAt": "2022-01-22T12:15:36.478Z",
  "devdoc": {
    "methods": {}
  },
  "userdoc": {
    "methods": {}
  }
}